{
  "address": "0x8D1AB23bEee17e58FB437cDcC35c75B89276fc26",
  "abi": [
    {
      "inputs": [],
      "stateMutability": "nonpayable",
      "type": "constructor"
    },
    {
      "inputs": [
        {
          "internalType": "address",
          "name": "sender",
          "type": "address"
        },
        {
          "internalType": "uint256",
          "name": "tokenId",
          "type": "uint256"
        },
        {
          "internalType": "address",
          "name": "owner",
          "type": "address"
        }
      ],
      "name": "ERC721IncorrectOwner",
      "type": "error"
    },
    {
      "inputs": [
        {
          "internalType": "address",
          "name": "operator",
          "type": "address"
        },
        {
          "internalType": "uint256",
          "name": "tokenId",
          "type": "uint256"
        }
      ],
      "name": "ERC721InsufficientApproval",
      "type": "error"
    },
    {
      "inputs": [
        {
          "internalType": "address",
          "name": "approver",
          "type": "address"
        }
      ],
      "name": "ERC721InvalidApprover",
      "type": "error"
    },
    {
      "inputs": [
        {
          "internalType": "address",
          "name": "operator",
          "type": "address"
        }
      ],
      "name": "ERC721InvalidOperator",
      "type": "error"
    },
    {
      "inputs": [
        {
          "internalType": "address",
          "name": "owner",
          "type": "address"
        }
      ],
      "name": "ERC721InvalidOwner",
      "type": "error"
    },
    {
      "inputs": [
        {
          "internalType": "address",
          "name": "receiver",
          "type": "address"
        }
      ],
      "name": "ERC721InvalidReceiver",
      "type": "error"
    },
    {
      "inputs": [
        {
          "internalType": "address",
          "name": "sender",
          "type": "address"
        }
      ],
      "name": "ERC721InvalidSender",
      "type": "error"
    },
    {
      "inputs": [
        {
          "internalType": "uint256",
          "name": "tokenId",
          "type": "uint256"
        }
      ],
      "name": "ERC721NonexistentToken",
      "type": "error"
    },
    {
      "anonymous": false,
      "inputs": [
        {
          "indexed": true,
          "internalType": "address",
          "name": "owner",
          "type": "address"
        },
        {
          "indexed": true,
          "internalType": "address",
          "name": "approved",
          "type": "address"
        },
        {
          "indexed": true,
          "internalType": "uint256",
          "name": "tokenId",
          "type": "uint256"
        }
      ],
      "name": "Approval",
      "type": "event"
    },
    {
      "anonymous": false,
      "inputs": [
        {
          "indexed": true,
          "internalType": "address",
          "name": "owner",
          "type": "address"
        },
        {
          "indexed": true,
          "internalType": "address",
          "name": "operator",
          "type": "address"
        },
        {
          "indexed": false,
          "internalType": "bool",
          "name": "approved",
          "type": "bool"
        }
      ],
      "name": "ApprovalForAll",
      "type": "event"
    },
    {
      "anonymous": false,
      "inputs": [
        {
          "indexed": false,
          "internalType": "uint256",
          "name": "_fromTokenId",
          "type": "uint256"
        },
        {
          "indexed": false,
          "internalType": "uint256",
          "name": "_toTokenId",
          "type": "uint256"
        }
      ],
      "name": "BatchMetadataUpdate",
      "type": "event"
    },
    {
      "anonymous": false,
      "inputs": [
        {
          "indexed": false,
          "internalType": "uint256",
          "name": "_tokenId",
          "type": "uint256"
        }
      ],
      "name": "MetadataUpdate",
      "type": "event"
    },
    {
      "anonymous": false,
      "inputs": [
        {
          "indexed": false,
          "internalType": "address",
          "name": "sender",
          "type": "address"
        },
        {
          "indexed": false,
          "internalType": "uint256",
          "name": "tokenId",
          "type": "uint256"
        }
      ],
      "name": "NewEpicNFTMinted",
      "type": "event"
    },
    {
      "anonymous": false,
      "inputs": [
        {
          "indexed": true,
          "internalType": "address",
          "name": "from",
          "type": "address"
        },
        {
          "indexed": true,
          "internalType": "address",
          "name": "to",
          "type": "address"
        },
        {
          "indexed": true,
          "internalType": "uint256",
          "name": "tokenId",
          "type": "uint256"
        }
      ],
      "name": "Transfer",
      "type": "event"
    },
    {
      "inputs": [
        {
          "internalType": "address",
          "name": "to",
          "type": "address"
        },
        {
          "internalType": "uint256",
          "name": "tokenId",
          "type": "uint256"
        }
      ],
      "name": "approve",
      "outputs": [],
      "stateMutability": "nonpayable",
      "type": "function"
    },
    {
      "inputs": [
        {
          "internalType": "address",
          "name": "owner",
          "type": "address"
        }
      ],
      "name": "balanceOf",
      "outputs": [
        {
          "internalType": "uint256",
          "name": "",
          "type": "uint256"
        }
      ],
      "stateMutability": "view",
      "type": "function"
    },
    {
      "inputs": [
        {
          "internalType": "uint256",
          "name": "tokenId",
          "type": "uint256"
        }
      ],
      "name": "getApproved",
      "outputs": [
        {
          "internalType": "address",
          "name": "",
          "type": "address"
        }
      ],
      "stateMutability": "view",
      "type": "function"
    },
    {
      "inputs": [],
      "name": "getTotalNFTsMinted",
      "outputs": [
        {
          "internalType": "uint256",
          "name": "",
          "type": "uint256"
        }
      ],
      "stateMutability": "view",
      "type": "function"
    },
    {
      "inputs": [
        {
          "internalType": "address",
          "name": "owner",
          "type": "address"
        },
        {
          "internalType": "address",
          "name": "operator",
          "type": "address"
        }
      ],
      "name": "isApprovedForAll",
      "outputs": [
        {
          "internalType": "bool",
          "name": "",
          "type": "bool"
        }
      ],
      "stateMutability": "view",
      "type": "function"
    },
    {
      "inputs": [],
      "name": "makeAnEpicNFT",
      "outputs": [],
      "stateMutability": "nonpayable",
      "type": "function"
    },
    {
      "inputs": [],
      "name": "name",
      "outputs": [
        {
          "internalType": "string",
          "name": "",
          "type": "string"
        }
      ],
      "stateMutability": "view",
      "type": "function"
    },
    {
      "inputs": [
        {
          "internalType": "uint256",
          "name": "tokenId",
          "type": "uint256"
        }
      ],
      "name": "ownerOf",
      "outputs": [
        {
          "internalType": "address",
          "name": "",
          "type": "address"
        }
      ],
      "stateMutability": "view",
      "type": "function"
    },
    {
      "inputs": [
        {
          "internalType": "uint256",
          "name": "tokenId",
          "type": "uint256"
        }
      ],
      "name": "pickRandomColor",
      "outputs": [
        {
          "internalType": "string",
          "name": "",
          "type": "string"
        }
      ],
      "stateMutability": "view",
      "type": "function"
    },
    {
      "inputs": [
        {
          "internalType": "uint256",
          "name": "tokenId",
          "type": "uint256"
        }
      ],
      "name": "pickRandomFirstWord",
      "outputs": [
        {
          "internalType": "string",
          "name": "",
          "type": "string"
        }
      ],
      "stateMutability": "view",
      "type": "function"
    },
    {
      "inputs": [
        {
          "internalType": "uint256",
          "name": "tokenId",
          "type": "uint256"
        }
      ],
      "name": "pickRandomSecondWord",
      "outputs": [
        {
          "internalType": "string",
          "name": "",
          "type": "string"
        }
      ],
      "stateMutability": "view",
      "type": "function"
    },
    {
      "inputs": [
        {
          "internalType": "uint256",
          "name": "tokenId",
          "type": "uint256"
        }
      ],
      "name": "pickRandomThirdWord",
      "outputs": [
        {
          "internalType": "string",
          "name": "",
          "type": "string"
        }
      ],
      "stateMutability": "view",
      "type": "function"
    },
    {
      "inputs": [
        {
          "internalType": "address",
          "name": "from",
          "type": "address"
        },
        {
          "internalType": "address",
          "name": "to",
          "type": "address"
        },
        {
          "internalType": "uint256",
          "name": "tokenId",
          "type": "uint256"
        }
      ],
      "name": "safeTransferFrom",
      "outputs": [],
      "stateMutability": "nonpayable",
      "type": "function"
    },
    {
      "inputs": [
        {
          "internalType": "address",
          "name": "from",
          "type": "address"
        },
        {
          "internalType": "address",
          "name": "to",
          "type": "address"
        },
        {
          "internalType": "uint256",
          "name": "tokenId",
          "type": "uint256"
        },
        {
          "internalType": "bytes",
          "name": "data",
          "type": "bytes"
        }
      ],
      "name": "safeTransferFrom",
      "outputs": [],
      "stateMutability": "nonpayable",
      "type": "function"
    },
    {
      "inputs": [
        {
          "internalType": "address",
          "name": "operator",
          "type": "address"
        },
        {
          "internalType": "bool",
          "name": "approved",
          "type": "bool"
        }
      ],
      "name": "setApprovalForAll",
      "outputs": [],
      "stateMutability": "nonpayable",
      "type": "function"
    },
    {
      "inputs": [
        {
          "internalType": "bytes4",
          "name": "interfaceId",
          "type": "bytes4"
        }
      ],
      "name": "supportsInterface",
      "outputs": [
        {
          "internalType": "bool",
          "name": "",
          "type": "bool"
        }
      ],
      "stateMutability": "view",
      "type": "function"
    },
    {
      "inputs": [],
      "name": "symbol",
      "outputs": [
        {
          "internalType": "string",
          "name": "",
          "type": "string"
        }
      ],
      "stateMutability": "view",
      "type": "function"
    },
    {
      "inputs": [
        {
          "internalType": "uint256",
          "name": "tokenId",
          "type": "uint256"
        }
      ],
      "name": "tokenURI",
      "outputs": [
        {
          "internalType": "string",
          "name": "",
          "type": "string"
        }
      ],
      "stateMutability": "view",
      "type": "function"
    },
    {
      "inputs": [
        {
          "internalType": "address",
          "name": "from",
          "type": "address"
        },
        {
          "internalType": "address",
          "name": "to",
          "type": "address"
        },
        {
          "internalType": "uint256",
          "name": "tokenId",
          "type": "uint256"
        }
      ],
      "name": "transferFrom",
      "outputs": [],
      "stateMutability": "nonpayable",
      "type": "function"
    }
  ],
  "transactionHash": "0x2a9c57a8f34082a9f4fdbc2b3929ae693cc8113631a9ec2046bfde970f25ac49",
  "args": [],
  "numDeployments": 1,
  "solcInputHash": "c17321e03841bea75ce2e29bf3b19e9b",
  "bytecode": "0x61018060405260d36080818152906200250260a03960089062000023908262000679565b50604051806080016040528060568152602001620025d5605691396009906200004d908262000679565b506040518060c001604052806040518060400160405280600381526020016206869760ec1b815250815260200160405180604001604052806005815260200164073747261760dc1b8152508152602001604051806040016040528060068152602001656a756e676c6560d01b8152508152602001604051806040016040528060068152602001650caccccd8eaf60d31b815250815260200160405180604001604052806006815260200165195e195b5c1d60d21b8152508152602001604051806040016040528060068152602001651858d8d95c1d60d21b815250815250600a9060066200013d92919062000506565b506040805161010081018252600560c08201818152643332b4b3b760d91b60e0840152825282518084018452600680825265756e6971756560d01b602083810191909152808501929092528451808601865283815264737465616d60d81b818401528486015284518086018652600381526236b0b760e91b8184015260608501528451808601865281815265323930b3b7b760d11b81840152608085015284518086019095529184526472616e676560d81b9084015260a08201929092526200020a91600b919062000506565b506040805161010081018252600660c082018181526519195b9a585b60d21b60e08401528252825180840184526004808252633230b6b760e11b6020838101919091528085019290925284518086018652908152631a19585b60e21b818301528385015283518085018552600580825264706c75636b60d81b828401526060850191909152845180860186529081526418dc99595960da1b8183015260808401528351808501909452818452656f70706f736560d01b9084015260a0820192909252620002db91600c919062000506565b506040518060c00160405280604051806040016040528060038152602001621c995960ea1b8152508152602001604051806040016040528060078152602001660466070866482760cb1b815250815260200160405180604001604052806005815260200164626c61636b60d81b81525081526020016040518060400160405280600681526020016579656c6c6f7760d01b815250815260200160405180604001604052806004815260200163626c756560e01b81525081526020016040518060400160405280600581526020016433b932b2b760d91b815250815250600d906006620003c992919062000506565b50348015620003d757600080fd5b506040518060400160405280600981526020016814dc5d585c9953919560ba1b8152506040518060400160405280600681526020016553515541524560d01b81525081600090816200042a919062000679565b50600162000439828262000679565b505060408051808201909152601e81527f54686973206973206d79204e465420636f6e74726163742e20576f616821000060208201526200047b915062000481565b62000795565b620004cc8160405160240162000498919062000745565b60408051601f198184030181529190526020810180516001600160e01b0390811663104c13eb60e21b17909152620004cf16565b50565b620004cc81620004e560201b62000a061760201c565b60006a636f6e736f6c652e6c6f679050600080835160208501845afa505050565b82805482825590600052602060002090810192821562000551579160200282015b8281111562000551578251829062000540908262000679565b509160200191906001019062000527565b506200055f92915062000563565b5090565b808211156200055f5760006200057a828262000584565b5060010162000563565b5080546200059290620005ea565b6000825580601f10620005a3575050565b601f016020900490600052602060002090810190620004cc91905b808211156200055f5760008155600101620005be565b634e487b7160e01b600052604160045260246000fd5b600181811c90821680620005ff57607f821691505b6020821081036200062057634e487b7160e01b600052602260045260246000fd5b50919050565b601f8211156200067457600081815260208120601f850160051c810160208610156200064f5750805b601f850160051c820191505b8181101562000670578281556001016200065b565b5050505b505050565b81516001600160401b03811115620006955762000695620005d4565b620006ad81620006a68454620005ea565b8462000626565b602080601f831160018114620006e55760008415620006cc5750858301515b600019600386901b1c1916600185901b17855562000670565b600085815260208120601f198616915b828110156200071657888601518255948401946001909101908401620006f5565b5085821015620007355787850151600019600388901b60f8161c191681555b5050505050600190811b01905550565b600060208083528351808285015260005b81811015620007745785810183015185820160400152820162000756565b506000604082860101526040601f19601f8301168501019250505092915050565b611d5d80620007a56000396000f3fe608060405234801561001057600080fd5b50600436106101215760003560e01c806370a08231116100ad578063b88d4fde11610071578063b88d4fde14610259578063c575757a1461026c578063c87b56dd1461027f578063de9d132f14610292578063e985e9c51461029a57600080fd5b806370a082311461020257806395d89b4114610223578063a22cb4651461022b578063b187301f1461023e578063b4c3b8be1461025157600080fd5b806323b872dd116100f457806323b872dd146101a35780632de38d68146101b657806342842e0e146101c9578063514dc8c6146101dc5780636352211e146101ef57600080fd5b806301ffc9a71461012657806306fdde031461014e578063081812fc14610163578063095ea7b31461018e575b600080fd5b610139610134366004611462565b6102ad565b60405190151581526020015b60405180910390f35b6101566102d8565b60405161014591906114cf565b6101766101713660046114e2565b61036a565b6040516001600160a01b039091168152602001610145565b6101a161019c366004611517565b610393565b005b6101a16101b1366004611541565b6103a2565b6101566101c43660046114e2565b610432565b6101a16101d7366004611541565b610526565b6101566101ea3660046114e2565b610546565b6101766101fd3660046114e2565b61058b565b61021561021036600461157d565b610596565b604051908152602001610145565b6101566105de565b6101a1610239366004611598565b6105ed565b61015661024c3660046114e2565b6105f8565b600754610215565b6101a16102673660046115ea565b61063d565b61015661027a3660046114e2565b610654565b61015661028d3660046114e2565b610699565b6101a16107aa565b6101396102a83660046116c6565b6109d8565b60006001600160e01b03198216632483248360e11b14806102d257506102d282610a27565b92915050565b6060600080546102e7906116f9565b80601f0160208091040260200160405190810160405280929190818152602001828054610313906116f9565b80156103605780601f1061033557610100808354040283529160200191610360565b820191906000526020600020905b81548152906001019060200180831161034357829003601f168201915b5050505050905090565b600061037582610a77565b506000828152600460205260409020546001600160a01b03166102d2565b61039e828233610ab0565b5050565b6001600160a01b0382166103d157604051633250574960e11b8152600060048201526024015b60405180910390fd5b60006103de838333610abd565b9050836001600160a01b0316816001600160a01b03161461042c576040516364283d7b60e01b81526001600160a01b03808616600483015260248201849052821660448201526064016103c8565b50505050565b6060600061046661044284610bb6565b6040516020016104529190611733565b604051602081830303815290604052610c49565b600a54909150610476908261177b565b9050600a818154811061048b5761048b61178f565b9060005260206000200180546104a0906116f9565b80601f01602080910402602001604051908101604052809291908181526020018280546104cc906116f9565b80156105195780601f106104ee57610100808354040283529160200191610519565b820191906000526020600020905b8154815290600101906020018083116104fc57829003601f168201915b5050505050915050919050565b6105418383836040518060200160405280600081525061063d565b505050565b6060600061056661055684610bb6565b60405160200161045291906117a5565b600d54909150610576908261177b565b9050600d818154811061048b5761048b61178f565b60006102d282610a77565b60006001600160a01b0382166105c2576040516322718ad960e21b8152600060048201526024016103c8565b506001600160a01b031660009081526003602052604090205490565b6060600180546102e7906116f9565b61039e338383610c7a565b6060600061061861060884610bb6565b60405160200161045291906117d2565b600b54909150610628908261177b565b9050600b818154811061048b5761048b61178f565b6106488484846103a2565b61042c84848484610d19565b6060600061067461066484610bb6565b6040516020016104529190611805565b600c54909150610684908261177b565b9050600c818154811061048b5761048b61178f565b60606106a482610a77565b50600082815260066020526040812080546106be906116f9565b80601f01602080910402602001604051908101604052809291908181526020018280546106ea906116f9565b80156107375780601f1061070c57610100808354040283529160200191610737565b820191906000526020600020905b81548152906001019060200180831161071a57829003601f168201915b50505050509050600061075560408051602081019091526000815290565b90508051600003610767575092915050565b81511561079957808260405160200161078192919061182a565b60405160208183030381529060405292505050919050565b6107a284610e42565b949350505050565b6032600754106107f55760405162461bcd60e51b815260206004820152601660248201527513585e08139195081cdd5c1c1b1e481c995858da195960521b60448201526064016103c8565b600754600061080382610432565b90506000610810836105f8565b9050600061081d84610654565b9050600083838360405160200161083693929190611859565b6040516020818303038152906040529050600061085286610546565b9050600060088260098560405160200161086f949392919061190f565b604051602081830303815290604052905060006108b48461088f84610eb7565b6040516020016108a092919061196d565b604051602081830303815290604052610eb7565b90506000816040516020016108c99190611a43565b60408051601f1981840301815282820190915260158252740a2d2d2d2d2d2d2d2d2d2d2d2d2d2d2d2d2d2d2d2d60581b6020830152915061090990611021565b61091281611021565b6109486040518060400160405280601581526020017416969696969696969696969696969696969696968560591b815250611021565b610952338a611067565b61095c8982611081565b6007805490600061096c83611a9e565b9190505550610994604051806060016040528060258152602001611cc3602591398a336110d1565b60408051338152602081018b90527febb98688741ffa4c7589bf325de30cf7becb63de567842e1ccdb6cb949fdc82c910160405180910390a1505050505050505050565b6001600160a01b03918216600090815260056020908152604080832093909416825291909152205460ff1690565b60006a636f6e736f6c652e6c6f679050600080835160208501845afa505050565b60006001600160e01b031982166380ac58cd60e01b1480610a5857506001600160e01b03198216635b5e139f60e01b145b806102d257506301ffc9a760e01b6001600160e01b03198316146102d2565b6000818152600260205260408120546001600160a01b0316806102d257604051637e27328960e01b8152600481018490526024016103c8565b6105418383836001611118565b6000828152600260205260408120546001600160a01b0390811690831615610aea57610aea81848661121e565b6001600160a01b03811615610b2857610b07600085600080611118565b6001600160a01b038116600090815260036020526040902080546000190190555b6001600160a01b03851615610b57576001600160a01b0385166000908152600360205260409020805460010190555b60008481526002602052604080822080546001600160a01b0319166001600160a01b0389811691821790925591518793918516917fddf252ad1be2c89b69c2b068fc378daa952ba7f163c4a11628f55a4df523b3ef91a4949350505050565b60606000610bc383611282565b600101905060008167ffffffffffffffff811115610be357610be36115d4565b6040519080825280601f01601f191660200182016040528015610c0d576020820181803683370190505b5090508181016020015b600019016f181899199a1a9b1b9c1cb0b131b232b360811b600a86061a8153600a8504945084610c1757509392505050565b600081604051602001610c5c9190611ab7565b60408051601f19818403018152919052805160209091012092915050565b6001600160a01b038216610cac57604051630b61174360e31b81526001600160a01b03831660048201526024016103c8565b6001600160a01b03838116600081815260056020908152604080832094871680845294825291829020805460ff191686151590811790915591519182527f17307eab39ab6107e8899845ad3d59bd9653f200f220920489ca2b5937696c31910160405180910390a3505050565b6001600160a01b0383163b1561042c57604051630a85bd0160e11b81526001600160a01b0384169063150b7a0290610d5b903390889087908790600401611ad3565b6020604051808303816000875af1925050508015610d96575060408051601f3d908101601f19168201909252610d9391810190611b10565b60015b610dff573d808015610dc4576040519150601f19603f3d011682016040523d82523d6000602084013e610dc9565b606091505b508051600003610df757604051633250574960e11b81526001600160a01b03851660048201526024016103c8565b805181602001fd5b6001600160e01b03198116630a85bd0160e11b14610e3b57604051633250574960e11b81526001600160a01b03851660048201526024016103c8565b5050505050565b6060610e4d82610a77565b506000610e6560408051602081019091526000815290565b90506000815111610e855760405180602001604052806000815250610eb0565b80610e8f84610bb6565b604051602001610ea092919061182a565b6040516020818303038152906040525b9392505050565b80516060906000819003610edb575050604080516020810190915260008152919050565b60006003610eea836002611b2d565b610ef49190611b40565b610eff906004611b54565b90506000610f0e826020611b2d565b67ffffffffffffffff811115610f2657610f266115d4565b6040519080825280601f01601f191660200182016040528015610f50576020820181803683370190505b5090506000604051806060016040528060408152602001611ce8604091399050600181016020830160005b86811015610fdc576003818a01810151603f601282901c8116860151600c83901c8216870151600684901c831688015192909316870151600891821b60ff94851601821b92841692909201901b91160160e01b835260049092019101610f7b565b506003860660018114610ff6576002811461100757611013565b613d3d60f01b600119830152611013565b603d60f81b6000198301525b505050918152949350505050565b6110648160405160240161103591906114cf565b60408051601f198184030181529190526020810180516001600160e01b031663104c13eb60e21b17905261135a565b50565b61039e828260405180602001604052806000815250611363565b60008281526006602052604090206110998282611bb9565b506040518281527ff8e1a15aba9398e019f0b49df1a4fde98ee17ae345cb5f6b5e2c27f5033e8ce79060200160405180910390a15050565b6105418383836040516024016110e993929190611c79565b60408051601f198184030181529190526020810180516001600160e01b031663038fd88960e31b17905261135a565b808061112c57506001600160a01b03821615155b156111ee57600061113c84610a77565b90506001600160a01b038316158015906111685750826001600160a01b0316816001600160a01b031614155b801561117b575061117981846109d8565b155b156111a45760405163a9fbf51f60e01b81526001600160a01b03841660048201526024016103c8565b81156111ec5783856001600160a01b0316826001600160a01b03167f8c5be1e5ebec7d5bd14f71427d1e84f3dd0314c0f7b2291e5b200ac8c7c3b92560405160405180910390a45b505b5050600090815260046020526040902080546001600160a01b0319166001600160a01b0392909216919091179055565b61122983838361137a565b610541576001600160a01b03831661125757604051637e27328960e01b8152600481018290526024016103c8565b60405163177e802f60e01b81526001600160a01b0383166004820152602481018290526044016103c8565b60008072184f03e93ff9f4daa797ed6e38ed64bf6a1f0160401b83106112c15772184f03e93ff9f4daa797ed6e38ed64bf6a1f0160401b830492506040015b6d04ee2d6d415b85acef810000000083106112ed576d04ee2d6d415b85acef8100000000830492506020015b662386f26fc10000831061130b57662386f26fc10000830492506010015b6305f5e1008310611323576305f5e100830492506008015b612710831061133757612710830492506004015b60648310611349576064830492506002015b600a83106102d25760010192915050565b61106481610a06565b61136d83836113dd565b6105416000848484610d19565b60006001600160a01b038316158015906107a25750826001600160a01b0316846001600160a01b031614806113b457506113b484846109d8565b806107a25750506000908152600460205260409020546001600160a01b03908116911614919050565b6001600160a01b03821661140757604051633250574960e11b8152600060048201526024016103c8565b600061141583836000610abd565b90506001600160a01b03811615610541576040516339e3563760e11b8152600060048201526024016103c8565b61144a611cac565b565b6001600160e01b03198116811461106457600080fd5b60006020828403121561147457600080fd5b8135610eb08161144c565b60005b8381101561149a578181015183820152602001611482565b50506000910152565b600081518084526114bb81602086016020860161147f565b601f01601f19169290920160200192915050565b602081526000610eb060208301846114a3565b6000602082840312156114f457600080fd5b5035919050565b80356001600160a01b038116811461151257600080fd5b919050565b6000806040838503121561152a57600080fd5b611533836114fb565b946020939093013593505050565b60008060006060848603121561155657600080fd5b61155f846114fb565b925061156d602085016114fb565b9150604084013590509250925092565b60006020828403121561158f57600080fd5b610eb0826114fb565b600080604083850312156115ab57600080fd5b6115b4836114fb565b9150602083013580151581146115c957600080fd5b809150509250929050565b634e487b7160e01b600052604160045260246000fd5b6000806000806080858703121561160057600080fd5b611609856114fb565b9350611617602086016114fb565b925060408501359150606085013567ffffffffffffffff8082111561163b57600080fd5b818701915087601f83011261164f57600080fd5b813581811115611661576116616115d4565b604051601f8201601f19908116603f01168101908382118183101715611689576116896115d4565b816040528281528a60208487010111156116a257600080fd5b82602086016020830137600060208483010152809550505050505092959194509250565b600080604083850312156116d957600080fd5b6116e2836114fb565b91506116f0602084016114fb565b90509250929050565b600181811c9082168061170d57607f821691505b60208210810361172d57634e487b7160e01b600052602260045260246000fd5b50919050565b6911925494d517d5d3d49160b21b81526000825161175881600a85016020870161147f565b91909101600a0192915050565b634e487b7160e01b600052601260045260246000fd5b60008261178a5761178a611765565b500690565b634e487b7160e01b600052603260045260246000fd5b6421a7a627a960d91b8152600082516117c581600585016020870161147f565b9190910160050192915050565b6a14d150d3d39117d5d3d49160aa1b8152600082516117f881600b85016020870161147f565b91909101600b0192915050565b69151212549117d5d3d49160b21b81526000825161175881600a85016020870161147f565b6000835161183c81846020880161147f565b83519083019061185081836020880161147f565b01949350505050565b6000845161186b81846020890161147f565b84519083019061187f81836020890161147f565b845191019061189281836020880161147f565b0195945050505050565b600081546118a9816116f9565b600182811680156118c157600181146118d657611905565b60ff1984168752821515830287019450611905565b8560005260208060002060005b858110156118fc5781548a8201529084019082016118e3565b50505082870194505b5050505092915050565b600061191b828761189c565b855161192b818360208a0161147f565b6119378183018761189c565b915050835161194a81836020880161147f565b6c1e17ba32bc3a1f1e17b9bb339f60991b9101908152600d019695505050505050565b693d913730b6b2911d101160b11b8152825160009061199381600a85016020880161147f565b7f222c20226465736372697074696f6e223a20224120686967686c79206163636c600a918401918201527f61696d656420636f6c6c656374696f6e206f6620737175617265732e222c2022602a8201527f696d616765223a2022646174613a696d6167652f7376672b786d6c3b62617365604a820152620d8d0b60ea1b606a8201528351611a2881606d84016020880161147f565b61227d60f01b606d9290910191820152606f01949350505050565b7f646174613a6170706c69636174696f6e2f6a736f6e3b6261736536342c000000815260008251611a7b81601d85016020870161147f565b91909101601d0192915050565b634e487b7160e01b600052601160045260246000fd5b600060018201611ab057611ab0611a88565b5060010190565b60008251611ac981846020870161147f565b9190910192915050565b6001600160a01b0385811682528416602082015260408101839052608060608201819052600090611b06908301846114a3565b9695505050505050565b600060208284031215611b2257600080fd5b8151610eb08161144c565b808201808211156102d2576102d2611a88565b600082611b4f57611b4f611765565b500490565b80820281158282048414176102d2576102d2611a88565b601f82111561054157600081815260208120601f850160051c81016020861015611b925750805b601f850160051c820191505b81811015611bb157828155600101611b9e565b505050505050565b815167ffffffffffffffff811115611bd357611bd36115d4565b611be781611be184546116f9565b84611b6b565b602080601f831160018114611c1c5760008415611c045750858301515b600019600386901b1c1916600185901b178555611bb1565b600085815260208120601f198616915b82811015611c4b57888601518255948401946001909101908401611c2c565b5085821015611c695787850151600019600388901b60f8161c191681555b5050505050600190811b01905550565b606081526000611c8c60608301866114a3565b6020830194909452506001600160a01b0391909116604090910152919050565b634e487b7160e01b600052605160045260246000fdfe416e204e465420772f20494420257320686173206265656e206d696e74656420746f2025734142434445464748494a4b4c4d4e4f505152535455565758595a6162636465666768696a6b6c6d6e6f707172737475767778797a303132333435363738392b2fa2646970667358221220ec5c594afd7231f95fc6cb64374de1c056a4acf63422d4130d98a7fab4cc4d1664736f6c634300081400333c73766720786d6c6e733d27687474703a2f2f7777772e77332e6f72672f323030302f73766727207072657365727665417370656374526174696f3d27784d696e594d696e206d656574272076696577426f783d273020302033353020333530273e3c7374796c653e2e62617365207b2066696c6c3a2077686974653b20666f6e742d66616d696c793a2073657269663b20666f6e742d73697a653a20323470783b207d3c2f7374796c653e3c726563742077696474683d273130302527206865696768743d2731303025272066696c6c3d27272f3e3c7465787420783d273530252720793d273530252720636c6173733d27626173652720646f6d696e616e742d626173656c696e653d276d6964646c652720746578742d616e63686f723d276d6964646c65273e",
  "devdoc": {
    "errors": {
      "ERC721IncorrectOwner(address,uint256,address)": [
        {
          "details": "Indicates an error related to the ownership over a particular token. Used in transfers.",
          "params": {
            "owner": "Address of the current owner of a token.",
            "sender": "Address whose tokens are being transferred.",
            "tokenId": "Identifier number of a token."
          }
        }
      ],
      "ERC721InsufficientApproval(address,uint256)": [
        {
          "details": "Indicates a failure with the `operator`s approval. Used in transfers.",
          "params": {
            "operator": "Address that may be allowed to operate on tokens without being their owner.",
            "tokenId": "Identifier number of a token."
          }
        }
      ],
      "ERC721InvalidApprover(address)": [
        {
          "details": "Indicates a failure with the `approver` of a token to be approved. Used in approvals.",
          "params": {
            "approver": "Address initiating an approval operation."
          }
        }
      ],
      "ERC721InvalidOperator(address)": [
        {
          "details": "Indicates a failure with the `operator` to be approved. Used in approvals.",
          "params": {
            "operator": "Address that may be allowed to operate on tokens without being their owner."
          }
        }
      ],
      "ERC721InvalidOwner(address)": [
        {
          "details": "Indicates that an address can't be an owner. For example, `address(0)` is a forbidden owner in EIP-20. Used in balance queries.",
          "params": {
            "owner": "Address of the current owner of a token."
          }
        }
      ],
      "ERC721InvalidReceiver(address)": [
        {
          "details": "Indicates a failure with the token `receiver`. Used in transfers.",
          "params": {
            "receiver": "Address to which tokens are being transferred."
          }
        }
      ],
      "ERC721InvalidSender(address)": [
        {
          "details": "Indicates a failure with the token `sender`. Used in transfers.",
          "params": {
            "sender": "Address whose tokens are being transferred."
          }
        }
      ],
      "ERC721NonexistentToken(uint256)": [
        {
          "details": "Indicates a `tokenId` whose `owner` is the zero address.",
          "params": {
            "tokenId": "Identifier number of a token."
          }
        }
      ]
    },
    "events": {
      "Approval(address,address,uint256)": {
        "details": "Emitted when `owner` enables `approved` to manage the `tokenId` token."
      },
      "ApprovalForAll(address,address,bool)": {
        "details": "Emitted when `owner` enables or disables (`approved`) `operator` to manage all of its assets."
      },
      "BatchMetadataUpdate(uint256,uint256)": {
        "details": "This event emits when the metadata of a range of tokens is changed. So that the third-party platforms such as NFT market could timely update the images and related attributes of the NFTs."
      },
      "MetadataUpdate(uint256)": {
        "details": "This event emits when the metadata of a token is changed. So that the third-party platforms such as NFT market could timely update the images and related attributes of the NFT."
      },
      "Transfer(address,address,uint256)": {
        "details": "Emitted when `tokenId` token is transferred from `from` to `to`."
      }
    },
    "kind": "dev",
    "methods": {
      "approve(address,uint256)": {
        "details": "See {IERC721-approve}."
      },
      "balanceOf(address)": {
        "details": "See {IERC721-balanceOf}."
      },
      "getApproved(uint256)": {
        "details": "See {IERC721-getApproved}."
      },
      "isApprovedForAll(address,address)": {
        "details": "See {IERC721-isApprovedForAll}."
      },
      "name()": {
        "details": "See {IERC721Metadata-name}."
      },
      "ownerOf(uint256)": {
        "details": "See {IERC721-ownerOf}."
      },
      "safeTransferFrom(address,address,uint256)": {
        "details": "See {IERC721-safeTransferFrom}."
      },
      "safeTransferFrom(address,address,uint256,bytes)": {
        "details": "See {IERC721-safeTransferFrom}."
      },
      "setApprovalForAll(address,bool)": {
        "details": "See {IERC721-setApprovalForAll}."
      },
      "supportsInterface(bytes4)": {
        "details": "See {IERC165-supportsInterface}"
      },
      "symbol()": {
        "details": "See {IERC721Metadata-symbol}."
      },
      "tokenURI(uint256)": {
        "details": "See {IERC721Metadata-tokenURI}."
      },
      "transferFrom(address,address,uint256)": {
        "details": "See {IERC721-transferFrom}."
      }
    },
    "version": 1
  },
  "userdoc": {
    "kind": "user",
    "methods": {},
    "version": 1
  },
  "storageLayout": {
    "storage": [
      {
        "astId": 201,
        "contract": "contracts/MyEpicNFT.sol:MyEpicNFT",
        "label": "_name",
        "offset": 0,
        "slot": "0",
        "type": "t_string_storage"
      },
      {
        "astId": 203,
        "contract": "contracts/MyEpicNFT.sol:MyEpicNFT",
        "label": "_symbol",
        "offset": 0,
        "slot": "1",
        "type": "t_string_storage"
      },
      {
        "astId": 207,
        "contract": "contracts/MyEpicNFT.sol:MyEpicNFT",
        "label": "_owners",
        "offset": 0,
        "slot": "2",
        "type": "t_mapping(t_uint256,t_address)"
      },
      {
        "astId": 211,
        "contract": "contracts/MyEpicNFT.sol:MyEpicNFT",
        "label": "_balances",
        "offset": 0,
        "slot": "3",
        "type": "t_mapping(t_address,t_uint256)"
      },
      {
        "astId": 215,
        "contract": "contracts/MyEpicNFT.sol:MyEpicNFT",
        "label": "_tokenApprovals",
        "offset": 0,
        "slot": "4",
        "type": "t_mapping(t_uint256,t_address)"
      },
      {
        "astId": 221,
        "contract": "contracts/MyEpicNFT.sol:MyEpicNFT",
        "label": "_operatorApprovals",
        "offset": 0,
        "slot": "5",
        "type": "t_mapping(t_address,t_mapping(t_address,t_bool))"
      },
      {
        "astId": 1340,
        "contract": "contracts/MyEpicNFT.sol:MyEpicNFT",
        "label": "_tokenURIs",
        "offset": 0,
        "slot": "6",
        "type": "t_mapping(t_uint256,t_string_storage)"
      },
      {
        "astId": 2958,
        "contract": "contracts/MyEpicNFT.sol:MyEpicNFT",
        "label": "_nextTokenId",
        "offset": 0,
        "slot": "7",
        "type": "t_uint256"
      },
      {
        "astId": 2961,
        "contract": "contracts/MyEpicNFT.sol:MyEpicNFT",
        "label": "svgPartOne",
        "offset": 0,
        "slot": "8",
        "type": "t_string_storage"
      },
      {
        "astId": 2964,
        "contract": "contracts/MyEpicNFT.sol:MyEpicNFT",
        "label": "svgPartTwo",
        "offset": 0,
        "slot": "9",
        "type": "t_string_storage"
      },
      {
        "astId": 2974,
        "contract": "contracts/MyEpicNFT.sol:MyEpicNFT",
        "label": "firstWords",
        "offset": 0,
        "slot": "10",
        "type": "t_array(t_string_storage)dyn_storage"
      },
      {
        "astId": 2984,
        "contract": "contracts/MyEpicNFT.sol:MyEpicNFT",
        "label": "secondWords",
        "offset": 0,
        "slot": "11",
        "type": "t_array(t_string_storage)dyn_storage"
      },
      {
        "astId": 2994,
        "contract": "contracts/MyEpicNFT.sol:MyEpicNFT",
        "label": "thirdWords",
        "offset": 0,
        "slot": "12",
        "type": "t_array(t_string_storage)dyn_storage"
      },
      {
        "astId": 3004,
        "contract": "contracts/MyEpicNFT.sol:MyEpicNFT",
        "label": "colors",
        "offset": 0,
        "slot": "13",
        "type": "t_array(t_string_storage)dyn_storage"
      }
    ],
    "types": {
      "t_address": {
        "encoding": "inplace",
        "label": "address",
        "numberOfBytes": "20"
      },
      "t_array(t_string_storage)dyn_storage": {
        "base": "t_string_storage",
        "encoding": "dynamic_array",
        "label": "string[]",
        "numberOfBytes": "32"
      },
      "t_bool": {
        "encoding": "inplace",
        "label": "bool",
        "numberOfBytes": "1"
      },
      "t_mapping(t_address,t_bool)": {
        "encoding": "mapping",
        "key": "t_address",
        "label": "mapping(address => bool)",
        "numberOfBytes": "32",
        "value": "t_bool"
      },
      "t_mapping(t_address,t_mapping(t_address,t_bool))": {
        "encoding": "mapping",
        "key": "t_address",
        "label": "mapping(address => mapping(address => bool))",
        "numberOfBytes": "32",
        "value": "t_mapping(t_address,t_bool)"
      },
      "t_mapping(t_address,t_uint256)": {
        "encoding": "mapping",
        "key": "t_address",
        "label": "mapping(address => uint256)",
        "numberOfBytes": "32",
        "value": "t_uint256"
      },
      "t_mapping(t_uint256,t_address)": {
        "encoding": "mapping",
        "key": "t_uint256",
        "label": "mapping(uint256 => address)",
        "numberOfBytes": "32",
        "value": "t_address"
      },
      "t_mapping(t_uint256,t_string_storage)": {
        "encoding": "mapping",
        "key": "t_uint256",
        "label": "mapping(uint256 => string)",
        "numberOfBytes": "32",
        "value": "t_string_storage"
      },
      "t_string_storage": {
        "encoding": "bytes",
        "label": "string",
        "numberOfBytes": "32"
      },
      "t_uint256": {
        "encoding": "inplace",
        "label": "uint256",
        "numberOfBytes": "32"
      }
    }
  }
}